:020000040800F2
:10000000D036002001010008A11E0008991E00083A
:100010009D1E0008FF010008954300080000000035
:100020000000000000000000000000002323000882
:100030000302000800000000212300082523000817
:100040001B0100081B0100081B0100081B01000820
:100050001B0100081B0100081B0100081B01000810
:100060001B0100081B0100081B0100081B01000800
:100070001B0100081B0100081B0100081B010008F0
:100080001B0100081B0100081B0100081B010008E0
:10009000FD4200081B0100081B0100081B010008AD
:1000A0001B0100081B0100081B0100081B010008C0
:1000B0001B0100081B0100081B0100081B010008B0
:1000C0001B0100081B0100081B0100081B010008A0
:1000D0001B010008AD2600081B0100081B010008D9
:1000E0001B0100081B0100081B010008DFF80CD0F1
:1000F00000F048F80048004725460008D0360020A8
:100100000648804706480047FEE7FEE7FEE7FEE7B1
:10011000FEE7FEE7FEE7FEE7FEE7FEE73123000825
:10012000ED00000840EA01039B0703D009E008C97D
:10013000121F08C0042AFAD203E011F8013B00F8AC
:10014000013B521EF9D27047D2B201E000F8012BF8
:10015000491EFBD270470022F6E710B513460A4647
:1001600004461946FFF7F0FF204610BD10B50446BF
:1001700004E00B7800F8013B03B1491C521EF8D291
:10018000204610BD064C074D06E0E06840F0010334
:1001900094E8070098471034AC42F6D3FFF7AAFF63
:1001A000B4500008D450000870B58C1810F8015BEA
:1001B00015F0070301D110F8013B2A1106D110F800
:1001C000012B03E010F8016B01F8016B5B1EF9D104
:1001D0002B0705D40023521E0DD401F8013BFAE78A
:1001E00010F8013BCB1A921C03E013F8015B01F8F5
:1001F000015B521EF9D5A142D8D3002070BD00BFCB
:10020000FEE7704731B5002400F09EF9044600BFB8
:1002100000F09AF9001B00998842F9D338BD00001C
:100220002DE9F847034600240020002584460027D6
:1002300000226EE14FF0010808FA02F4D1F80080C4
:1002400008EA0400A0427DD1DFF8D0A2D1F80480F2
:10025000A8EB0A09D0453AD014DCB8F1030F50D00E
:1002600009DCB8F1000F31D0B8F1010F1CD0B8F1A2
:10027000020F49D120E0B8F1110F18D0B8F1120FD8
:1002800042D11EE0B9F5881F25D006DCB9F5803FC4
:1002900020D0B9F5801F37D11AE0B9F5001F18D06A
:1002A000B9F5041F30D117E0D1F80CC02DE0D1F81A
:1002B0000C8008F1040C28E0D1F80C8008F1080C3F
:1002C00023E0D1F80C8008F10C0C1EE000BF00BF49
:1002D00000BF00BF00BF00BFD1F80880B8F1000F19
:1002E00002D14FF0040C0BE0D1F80880B8F1010FF7
:1002F00003D14FF0080C1C6102E04FF0080C5C6168
:1003000003E04FF0000C00E000BF00BFFF2801D861
:10031000984601E003F104084646FF2802D84FEA58
:10032000820803E0A2F108084FEA88084746D6F899
:1003300000804FF00F0909FA07F928EA09080CFABA
:1003400007F900E088E048EA0908C6F80080D1F81B
:10035000048008F08058B8F1805F7DD100BFDFF8DD
:10036000C081D8F8188048F00108DFF8B491C9F8C6
:100370001880C846D8F8188008F00108CDF8008029
:1003800000BF00BF4FEAB9384FEA920958F8295028
:100390004FEA82784FEA18794FF00F0808FA09F807
:1003A00025EA0805DFF87C81434502D14FF00008BB
:1003B00016E0DFF87481434502D14FF001080FE0E9
:1003C000DFF86881434502D14FF0020808E0DFF80A
:1003D0006081434502D14FF0030801E04FF004086B
:1003E0004FEA82794FEA197908FA09F848EA0505CF
:1003F000DFF840814FEA920948F82950D1F804808B
:1004000008F48038B8F5803F0AD1DFF82C81D8F89D
:10041000008048EA0008DFF82091C9F8008009E070
:10042000DFF81481D8F8008028EA0008DFF8089186
:10043000C9F80080D1F8048008F40038B8F5003F0E
:1004400010D1DFF8F48008F10408D8F8008048EAF9
:100450000008DFF8E49000E05AE009F10409C9F867
:1004600000800DE0DFF8D08008F10408D8F80080A3
:1004700028EA0008DFF8C09009F10409C9F80080F3
:10048000D1F8048008F48018B8F5801F0ED1DFF889
:10049000A88008F10808D8F8008048EA0008DFF8CA
:1004A000989009F10809C9F800800DE0DFF888800C
:1004B00008F10808D8F8008028EA0008DFF87890EA
:1004C00009F10809C9F80080D1F8048008F400187F
:1004D000B8F5001F0ED1DFF8608008F10C08D8F8DD
:1004E000008048EA0008DFF8509009F10C09C9F8CB
:1004F00000800DE0DFF8408008F10C08D8F800809B
:1005000028EA0008DFF8309009F10C09C9F80080EA
:10051000521C102AFFF48EAEBDE8F88700001110BF
:100520000010024000080140000C01400010014092
:100530000014014008000140000401400AB10161BB
:1005400001E00B0403617047014800687047000038
:100550000000002002480068401C01490860704704
:100560000000002010B50848006840F0100006495F
:100570000860032000F0A4F8002000F007F800F065
:1005800017F8002010BD00000020024070B504469E
:1005900000F018FE4FF47A71B0FBF1F5284601F037
:1005A000EEFA00222146501E00F04BF8002070BDEC
:1005B00008B500BF1B48806940F0010019498861F7
:1005C0000846806900F00100009000BF00BF0320D2
:1005D00000F076F8002211466FF00B0000F031F8C1
:1005E000002211466FF00A0000F02BF8002211469D
:1005F0006FF0090000F025F800221146501F00F0AE
:1006000020F800221146101F00F01BF800221146AE
:10061000901E00F016F800221146501E00F011F84E
:1006200008BD00000010024000BF00F01F020121C1
:1006300091404209920002F1E022C2F8001100BF8D
:1006400070472DE9F05F80460D461646002701F001
:1006500029FC074639462A46334601F00700C0F117
:10066000070ABAF1040F02D94FF0040A01E0C0F101
:10067000070AD14600F1040ABAF1070F02D24FF07F
:10068000000A01E0A0F1030AD4464FF0010A0AFA79
:1006900009FAAAF1010A0AEA020A0AFA0CFA4FF068
:1006A000010B0BFA0CFBABF1010B0BEA030B4AEA53
:1006B0000B042146404601F0FDFBBDE8F09F000021
:1006C00000BF00F00702064B19684FF6FF03194000
:1006D000044B0B4343EA0221014B196000BF7047F2
:1006E0000CED00E00000FA0570B505460C4600214F
:1006F00004F08000802806D104F07F0605F1280070
:1007000000EB461103E005F5027000EB44111AB945
:10071000002088728B8004E001208872CB80180C46
:100720000881002070BD704710B50446206803F0B2
:1007300064FA10BD70B504460D4604F1280101EBC2
:1007400045114A692946D4F81C0402F0E3FB70BD48
:1007500070B504460D4604F5027101EB45114A6976
:100760002946D4F81C0402F042FC70BD10B50446C2
:10077000206803F04FFA10BD70B504460D46002600
:1007800005F08000802806D105F07F0104F12800E3
:1007900000EB411605E005F07F0104F5027000EB67
:1007A000411605F07F00307005F08000C0097070C0
:1007B00000BF94F8E803012801D1022070BD012098
:1007C00084F8E80300BF3146206803F02CFA00BF2C
:1007D000002084F8E80300BF00BFEFE770B50446CF
:1007E0000D46002605F08000802806D105F07F0127
:1007F00004F1280000EB411603E004F5027000EB61
:1008000045160020B07005F07F003070C5F3C010B1
:10081000707000BF94F8E803012801D1022070BD78
:10082000012084F8E80300BF3146206803F024FB70
:1008300000BF002084F8E80300BF00BFEFE72DE908
:10084000F04704460D46174698464FF0000900262B
:1008500005F08000802806D105F07F0104F1280012
:1008600000EB411605E005F07F0104F5027000EB96
:10087000411605F07F00307005F08000C0097070EF
:10088000376186F8038000BF94F8E803012802D19D
:100890000220BDE8F087012084F8E80300BF31465C
:1008A000206802F0D5FF00BF002084F8E80300BFF5
:1008B0004846EEE72DE9F04104460E4617469846B5
:1008C000002506F07F0104F5027000EB41156F6111
:1008D000C5F818800020E861687006F07F00287075
:1008E00000BF94F8E803012802D10220BDE8F0819E
:1008F000012084F8E80300BF06F07F0020B92946F4
:10090000206803F056FB03E02946206803F051FB02
:1009100000BF002084F8E80300BF00BFE6E770B521
:1009200004460D46002605F08000802806D105F01B
:100930007F0104F1280000EB411603E004F502708A
:1009400000EB45160120B07005F07F003070C5F354
:10095000C010707000BF94F8E803012801D1022094
:1009600070BD012084F8E80300BF3146206803F021
:10097000DDFA05F07F0020B904F57B71206803F0F3
:1009800078FA00BF002084F8E80300BF00BFE7E763
:100990002DE9F04104460E4617469846002506F01C
:1009A0007F0104F1280000EB41156F61C5F8188044
:1009B0000020E8610120687006F07F00287000BF09
:1009C00094F8E803012802D10220BDE8F08101205B
:1009D00084F8E80300BF06F07F0020B929462068AC
:1009E00003F0E7FA03E02946206803F0E2FA00BFCB
:1009F000002084F8E80300BF00BFE6E770B50446B6
:100A00000025206803F082FC00F40040B0F5004FA0
:100A100002D1204601F062FA206803F077FC00F46E
:100A20008060B0F5806F0ED12068B0F8440020F4EB
:100A300080602168A1F84400204600F041F90021BF
:100A4000204600F060F9206803F060FC00F480406C
:100A5000B0F5804F07D12068B0F8440020F4804002
:100A60002168A1F84400206803F050FC00F4005015
:100A7000B0F5005F07D12068B0F8440020F40050C2
:100A80002168A1F84400206803F040FC00F4805085
:100A9000B0F5805F17D12068B0F8400020F0040066
:100AA0002168A1F840004FF43D452068A0F840506F
:100AB000204600F01AF92068B0F8440020F4805075
:100AC0002168A1F84400206803F020FC00F40060D5
:100AD000B0F5006F20D12068B0F8440020F4006029
:100AE0002168A1F844002068B0F8400040F00800F8
:100AF0002168A1F840002068B0F8400040F00400F0
:100B00002168A1F84000206803F000FCC0F3003029
:100B100010B9204600F03AF9206803F0F7FB00F422
:100B20000070B0F5007F0AD12068B0F8440020F4CE
:100B300000702168A1F84400204600F0DDF820682C
:100B400003F0E4FB00F48070B0F5807F07D12068EB
:100B5000B0F8440020F480702168A1F8440070BD12
:100B600030B585B00446002514B9012005B030BD6C
:100B700094F8E90328B9002084F8E803204600F03F
:100B80007DF8032084F8E903206803F067F9142254
:100B900004F110016846FFF7C5FA94E80F0003F06E
:100BA00035F80021206803F0CAFB002525E001216B
:100BB00004F1280000EB4510417004F1280000EB1F
:100BC0004510057004F1280000EB451085810021D7
:100BD00004F1280000EB4510C17004F1280000EB7F
:100BE0004510016104F1280000EB4510416104F15A
:100BF000280000EB451081616D1C0F2DD7D3002517
:100C000024E0002104F5027000EB4510417004F56A
:100C1000027000EB4510057004F1280000EB451050
:100C2000858104F5027000EB4510C17004F5027077
:100C300000EB4510016104F5027000EB45104161C5
:100C400004F5027000EB451081616D1C0F2DD8D3A7
:100C5000142204F110016846FFF764FA94E80F00CB
:100C600003F0F1F8002084F82400012084F8E9035F
:100C7000206803F0E5F8002078E7000038B5044666
:100C80000D492068884215D100BF0C48C06940F466
:100C900000000A49C8610846C06900F400000090DD
:100CA00000BF00BF002211461420FFF7CAFC142029
:100CB000FFF7BAFC38BD0000005C004000100240A5
:100CC00070B504460125A068022801D100BF01E0EB
:100CD000012500BF00BF2946D4F81C0402F0CEFA5B
:100CE000D4F81C0402F090FA70BD10B50446D4F894
:100CF0001C0402F0ABFA10BD10B50446D4F81C0475
:100D000002F0ABFA10BD70B504460D4600BF94F872
:100D1000E803012801D1022070BD012084F8E80316
:100D200000BF84F824502946206803F00BFB00BF65
:100D3000002084F8E80300BF00BFEDE710B50446CB
:100D400004F57B71D4F81C0402F0BEFA10BD10B596
:100D5000044600BF94F8E803012801D1022010BD29
:100D6000012084F8E80300BF01212046FFF7DBFCE7
:100D7000206803F062F8206803F0B4FA00BF002096
:100D800084F8E80300BF00BFE9E7000010B504469F
:100D9000D4F81C0402F00FFBA06928B103480068D6
:100DA00040F006000149086010BD000010ED00E0B1
:100DB000F8B5044600260025207800F00100002840
:100DC00077D000BF5648C06940F080505449C86190
:100DD0000846C06900F08050009000BF00BF514835
:100DE000006840F480704F490860FFF7ADFB06468D
:100DF00006E0FFF7A9FB801B642801D90320F8BD9A
:100E00004848006800F480700028F2D04448006A26
:100E100000F44075002D5ED0A08800F44070A84218
:100E200059D03F48006A20F440750120010491FA2E
:100E3000A1F1B1FA81F13C4A02EB8101C1F8000451
:100E400000204FF4803191FAA1F1B1FA81F102EB67
:100E50008101C1F800043248056205F0010048B381
:100E6000FFF772FB064608E0FFF76EFB801B41F2BE
:100E70008831884201D90320C1E74020022191FA3C
:100E8000A1F1B1FA81F108430121B1EB601F02D158
:100E90002348006811E04020022191FAA1F1B1FA43
:100EA00081F108430221B1EB601F04D11C48006AA4
:100EB00003E018E00FE01A48406A4021022292FA4B
:100EC000A2F2B2FA82F2114301F01F020121914015
:100ED00008400028C8D01248006A20F440706168B9
:100EE00008430F490862207800F00200022807D169
:100EF0000B48406820F44040A16808430849486016
:100F0000207800F01000102807D10548406820F430
:100F10008000E16808430249486000206FE7000054
:100F200000100240007000400000424270B50446CC
:100F30000D4600269F48006800F00700A8420ED228
:100F40009C48006820F0070028439A49086008463A
:100F5000006800F00700A84201D0012070BD207891
:100F600000F00200022807D19348406820F0F0000A
:100F7000A168084390494860207800F001000028EB
:100F80007CD0606801282DD12020010391FAA1F1C5
:100F9000B1FA81F108430121B1EB601F02D186480B
:100FA00000680FE02020010391FAA1F1B1FA81F16C
:100FB00008430221B1EB601F02D17F48006A01E0C3
:100FC0007D48406A20210A0392FAA2F2B2FA82F224
:100FD000114301F01F02012191400840002860D117
:100FE0000120BBE7606802282CD12020010591FA7E
:100FF000A1F1B1FA81F108430121B1EB601F02D1E7
:101000006D4800680FE02020010591FAA1F1B1FAC6
:1010100081F108430221B1EB601F02D16648006AEA
:1010200001E06548406A20210A0592FAA2F2B2FA6C
:1010300082F2114301F01F0201219140084078BB68
:1010400001208BE72020022191FAA1F1B1FA81F170
:1010500008430121B1EB601F02D15748006810E03E
:101060002020022191FAA1F1B1FA81F10843022175
:10107000B1EB601F03D15048006A02E054E04E48D3
:10108000406A2021022292FAA2F2B2FA82F21143BD
:1010900001F01F0201219140084008B901205DE7DD
:1010A000FFE74548406820F0030061680843424973
:1010B0004860FFF749FA06466068012810D108E049
:1010C000FFF742FA801B41F28831884201D90320A0
:1010D00044E73948406800F00C000428F0D123E0D0
:1010E0006068022810D108E0FFF72EFA801B41F259
:1010F0008831884201D9032030E72F48406800F04A
:101100000C000828F0D10FE008E0FFF71DFA801B63
:1011100041F28831884201D903201FE72648406800
:1011200000F00C000028F0D12248006800F0070011
:10113000A8420ED91F48006820F0070028431D4927
:1011400008600846006800F00700A84201D00120AE
:1011500004E7207800F00400042807D1164840680E
:1011600020F4E060E168084313494860207800F00B
:101170000800082808D11048406820F46050216910
:1011800040EAC1000C49486000F04EF80A4949683D
:1011900001F0F001F02292FAA2F2B2FA82F2D1400A
:1011A000064A515CC840064908600020FFF7EEF986
:1011B0000020D3E6002002400010024084500008C6
:1011C000040000200148006870470000040000206F
:1011D00000B5FFF7F7FF0749496801F4E0614FF4F4
:1011E000E06292FAA2F2B2FA82F2D140024A515C73
:1011F000C84000BD001002409450000800B5FFF741
:10120000E1FF0749496801F460514FF4605292FAD6
:10121000A2F2B2FA82F2D140024A515CC84000BD4B
:101220000010024094500008F0B585B00FF28C0C0D
:101230009CE8E01001A8A0E8E01024A52D68009526
:1012400000210024002200230020214D696801F0C4
:101250000C056DB3042D02D0082D28D101E01D48E6
:1012600028E001F470154FF4701696FAA6F6B6FA57
:1012700086F6F54001AE735D01F4803595B1144DED
:101280006D6805F400354FF4003696FAA6F6B6FA06
:1012900086F6F5401DF805400E4DB5FBF4F505FB4F
:1012A00003F202E00C4D03FB05F2104602E000BF22
:1012B000084800BF00BF05B0F0BD000002030405F0
:1012C000060708090A0B0C0D0E0F10100102000092
:1012D0000010024000127A0000093D0038B50446B3
:1012E0000025207800F0010000287CD0F8484068F4
:1012F00000F00C0004280CD0F548406800F00C0009
:10130000082837D1F248406800F48030B0F5803FBB
:1013100030D12020010391FAA1F1B1FA81F1084303
:101320000121B1EB601F02D1E94800680FE02020E5
:10133000010391FAA1F1B1FA81F108430221B1EB65
:10134000601F02D1E248006A01E0E148406A2021C2
:101350000A0392FAA2F2B2FA82F2114301F01F02DA
:101360000121914008400028BFD0606800283AD190
:10137000012038BD00BF6068B0F5803F06D1D44879
:10138000006840F48030D249086028E0606858B9AD
:10139000CF48006820F48030CD49086008460068D6
:1013A00020F4802008601AE06068B0F5A02F0BD10F
:1013B000C748006840F48020C549086008460068B6
:1013C00040F4803008600AE0C148006820F48030B2
:1013D000BF4908600846006820F48020086000BF0C
:1013E0006068C8B300E06FE0FFF7AEF8054606E0BE
:1013F000FFF7AAF8401B642801D90320B9E7202091
:10140000010391FAA1F1B1FA81F108430121B1EB95
:10141000601F02D1AE4800680FE02020010391FA5E
:10142000A1F1B1FA81F108430221B1EB601F02D1B1
:10143000A748006A01E0A648406A20210A0392FA00
:10144000A2F2B2FA82F2114301F01F02012191408F
:1014500008400028CCD037E0FFE7FFF775F80546D5
:1014600006E0FFF771F8401B642801D9032080E7EC
:101470002020010391FAA1F1B1FA81F10843012181
:10148000B1EB601F02D1924800680FE020200103F9
:1014900091FAA1F1B1FA81F108430221B1EB601F89
:1014A00002D18B48006A01E08948406A20210A0382
:1014B00092FAA2F2B2FA82F2114301F01F02012164
:1014C000914008400028CCD1207800F0020002288A
:1014D0004ED17F48406800F00C0050B17C48406815
:1014E00000F00C00082844D17948406800F48030AE
:1014F00078BB2020022191FAA1F1B1FA81F10843D1
:101500000121B1EB601F02D1714800680FE020207B
:10151000022191FAA1F1B1FA81F108430221B1EB64
:10152000601F02D16A48006A01E06948406A2021D0
:10153000022292FAA2F2B2FA82F2114301F01F02E1
:1015400001219140084028B12069012802D00120E2
:101550000FE70EE05E48006820F0F800F82292FAEB
:10156000A2F2B2FA82F261699140084358490860D8
:1015700091E02069F0B3012090FAA0F1B1FA81F175
:10158000544A42F82100FEF7DFFF054606E0FEF769
:10159000DBFF401B022801D90320EAE620200221BC
:1015A00091FAA1F1B1FA81F108430121B1EB601F79
:1015B00002D1474800680FE02020022191FAA1F1F2
:1015C000B1FA81F108430221B1EB601F02D140481A
:1015D000006A01E03E48406A2021022292FAA2F20B
:1015E000B2FA82F2114301F01F020121914008403A
:1015F000002800E00FE0CAD03548006820F0F8006D
:10160000F82292FAA2F2B2FA82F26169914008439A
:101610002F4908603FE00020012191FAA1F1B1FAC1
:1016200081F12C4A42F82100FEF78EFF054606E0C4
:10163000FEF78AFF401B022801D9032099E62020EB
:10164000022191FAA1F1B1FA81F108430121B1EB34
:10165000601F02D11E4800680FE02020022191FA8D
:10166000A1F1B1FA81F108430221B1EB601F02D16F
:101670001748006A01E01648406A2021022292FAC7
:10168000A2F2B2FA82F2114301F01F02012191404D
:1016900008400028CCD1207800F0080008284BD161
:1016A000A069A8B3012191FAA1F0B0FA80F0094A2B
:1016B00002EB8000C0F88014FEF746FF05460BE001
:1016C000FEF742FF401B022806D9032051E6000026
:1016D00000100240000042426020022191FAA1F174
:1016E000B1FA81F108430121B1EB601F02D1F94841
:1016F000006810E06020022191FAA1F1B1FA81F1B5
:1017000008430221B1EB601F03D1F248006A02E0F6
:1017100013E0F048406A6021022292FAA2F2B2FA83
:1017200082F2114301F01F0201219140084000287C
:10173000C6D00120FEF766FD41E00020012191FAAC
:10174000A1F1B1FA81F1E44A02EB8101C1F8800410
:10175000FEF7FAFE054606E0FEF7F6FE401B0228FD
:1017600001D9032005E66020022191FAA1F1B1FA26
:1017700081F108430121B1EB601F02D1D548006817
:101780000FE06020022191FAA1F1B1FA81F1084342
:101790000221B1EB601F02D1CE48006A01E0CD48C2
:1017A000406A6021022292FAA2F2B2FA82F2114356
:1017B00001F01F020121914008400028CCD120787F
:1017C00000F00400042875D100BFC248C06940F091
:1017D0008050C049C8610846C06900F08050009040
:1017E00000BF00BFBD48006840F48070BB4908607E
:1017F000FEF7AAFE054606E0FEF7A6FE401B64289B
:1018000001D90320B5E5B548006800F480700028D0
:10181000F2D000BFE068012806D1AE48006A40F06F
:101820000100AC49086227E0E06858B9A948006A9D
:1018300020F00100A74908620846006A20F0040071
:10184000086219E0E06805280BD1A248006A40F060
:101850000400A04908620846006A40F001000862DE
:101860000AE09C48006A20F001009A490862084694
:10187000006A20F00400086200BFE068D0B3FEF701
:1018800063FE054608E0FEF75FFE401B41F288312B
:10189000884201D903206CE54020022191FAA1F190
:1018A000B1FA81F108430121B1EB601F03D18948EE
:1018B000006810E058E04020022191FAA1F1B1FA4D
:1018C00081F108430221B1EB601F02D18148006A17
:1018D00001E08048406A4021022292FAA2F2B2FA64
:1018E00082F2114301F01F020121914008400028BB
:1018F000C9D039E0FFE7FEF727FE054608E0FEF70E
:1019000023FE401B41F28831884201D9032030E593
:101910004020022191FAA1F1B1FA81F1084301219D
:10192000B1EB601F02D16B4800680FE0402002213C
:1019300091FAA1F1B1FA81F108430221B1EB601FE4
:1019400002D16448006A01E06248406A40210222F4
:1019500092FAA2F2B2FA82F2114301F01F020121BF
:10196000914008400028CAD1E069002873D0594846
:10197000406800F00C0008286ED0E06902286CD1A5
:1019800000204FF0807191FAA1F1B1FA81F1524A31
:1019900042F82100FEF7D8FD054606E0FEF7D4FD2B
:1019A000401B022801D90320E3E42020010591FA1D
:1019B000A1F1B1FA81F108430121B1EB601F02D11D
:1019C000444800680FE02020010591FAA1F1B1FA26
:1019D00081F108430221B1EB601F02D13D48006A4A
:1019E00001E03C48406A20210A0592FAA2F2B2FACC
:1019F00082F2114301F01F020121914008400028AA
:101A0000CCD1206AB0F5803F07D13248406820F43D
:101A10000030A16808432F494860D4E90801084311
:101A20002C49496821F4741108432A49486001216E
:101A3000080690FAA0F0B0FA80F0274A42F8201089
:101A4000FEF782FD054609E0FEF77EFD401B0228F9
:101A500004D903208DE479E076E02CE02020010514
:101A600091FAA1F1B1FA81F108430121B1EB601FB4
:101A700002D1184800680FE02020010591FAA1F179
:101A8000B1FA81F108430221B1EB601F02D1114884
:101A9000006A01E00F48406A20210A0592FAA2F28A
:101AA000B2FA82F2114301F01F0201219140084075
:101AB0000028C9D04AE000204FF0807191FAA1F1CE
:101AC000B1FA81F1044A42F82100FEF73DFD0546D6
:101AD0000DE0000000100240000042420070004093
:101AE000FEF732FD401B022801D9032041E42020EB
:101AF000010591FAA1F1B1FA81F108430121B1EB9D
:101B0000601F02D1124800680FE02020010591FA01
:101B1000A1F1B1FA81F108430221B1EB601F02D1BA
:101B20000B48006A01E00A48406A20210A0592FA3F
:101B3000A2F2B2FA82F2114301F01F020121914098
:101B400008400028CCD101E0012012E4002010E47C
:101B500000100240042808D14FF0E021096941F04B
:101B600004014FF0E022116107E04FF0E021096924
:101B700021F004014FF0E02211617047704770B509
:101B800004462546681EB0F1807F01D301200FE096
:101B9000681E4FF0E02148610F214FF0FF3000F048
:101BA00089F900204FF0E0218861072008610020BA
:101BB00070BD10B5FFF7E2FF10BD7047F8B50446E1
:101BC000002500262068006800F001052068C06834
:101BD00000F4807625B11EB1E06B40F00100E063B7
:101BE00020680068C0F340052068406900F00106E5
:101BF00025B11EB1E06B40F00400E063206800688E
:101C0000C0F3800525B11EB1E06B40F00200E06337
:101C100020680068C0F3C00525B11EB1E06B40F03C
:101C20000800E06320680068C0F340152068C068C1
:101C300000F020061DB116B1204600F0BDFB206863
:101C40000068C0F3C0152068C06800F080061DB1B0
:101C500016B1204600F0F2FC20680068C0F3801541
:101C60002068C06800F040061DB116B1204600F0A3
:101C70008BFBE06B70B100BF2068006800902068AB
:101C80004068009000BF00BF012084F83900204662
:101C9000FFF793FFF8BD10B504460CB9012010BD45
:101CA000A06900B100E000BF94F8390028B9002015
:101CB00084F83800204600F025F8022084F8390026
:101CC0002068C06820F400502168C860204600F0F9
:101CD000D1FB2068006920F49040216808612068E9
:101CE000406920F02A00216848612068C06840F4FB
:101CF00000502168C8600020E063012084F83900AA
:101D00000020CCE710B586B004461449206888420C
:101D100021D100BF1248806940F480401049886199
:101D20000846806900F48040019000BF00BF48155C
:101D30000290022003900320059002A90948FEF7B3
:101D40006FFA4FF48060029000200390049002A983
:101D50000448FEF765FA06B010BD000000380140E7
:101D6000001002400008014030B50346002493F8FB
:101D70003940012C01D0122C37D101B10AB9012010
:101D800030BD00BF93F83800012801D10220F7E7E9
:101D9000012083F8380000BF99629A85DA85002017
:101DA000D86393F83900122803D1322083F8390020
:101DB00002E0222083F8390000BF002083F83800B9
:101DC00000BF1868C06840F480701D68E86018683B
:101DD000406940F001001D6868611868C06840F003
:101DE00020001D68E8600020CAE70220C8E7000064
:101DF00010B504460849206888420CD1074800689D
:101E000002690748017805480068904701220449A3
:101E10000448FFF7A9FF10BD003801406000002012
:101E20005C0000209012002030B50346002493F897
:101E30003940012C01D0222C2BD101B10AB901204B
:101E400030BD00BF93F83800012801D10220F7E728
:101E5000012083F8380000BF19629A84DA840020D8
:101E6000D86393F83900222803D1322083F839004F
:101E700002E0122083F8390000BF002083F8380008
:101E800000BF1868C06840F080001D68E86000204E
:101E9000D6E70220D4E7704700BFFEE700BFFEE7A9
:101EA0007047000002480068C0F30220704700003D
:101EB0000CED00E010B5002807DA0A07140E054AF9
:101EC00000F00F031B1FD45403E00A07130E024A4D
:101ED000135410BD18ED00E000E400E02DE9FC41D2
:101EE00005460024002700260020019000900CE207
:101EF000BDF8040000F00F06002E7DD1BDF80400EF
:101F000000F0100088BB2868008848F60F71084070
:101F10002968088005F128042868B0F85010207856
:101F200001EBC000801C296801F5806131F81000C8
:101F3000C0F30900E061E169606908446061002163
:101F40002846FEF7F7FB95F824000028CFDDA069AE
:101F50000028CCD195F8240040F080002968A1F831
:101F60004C00002085F82400CFE1FFE705F502745E
:101F7000286800880090BDF8000000F4006018B3E5
:101F80002868B0F85010207801EBC000801D296847
:101F900001F5806131F81000C0F30900E061A18B08
:101FA0008BB2A28805F57B71286802F0B4F9286825
:101FB0000088C0F30E0048F68F7108402968088039
:101FC0002846FEF7BBFEA0E1BDF8000000F400408B
:101FD00000288CD028680088C0F30E0048F68F7166
:101FE0000840296808802868B0F85010207801EB74
:101FF000C000801D296800E055E001F5806131F8DE
:102000001000C0F30900E061E06960B1B4F81CC0E1
:102010001FFA8CF3A2886169286802F07CF9E169F3
:1020200060690844606100212846FEF791FB2A6838
:1020300002F580622868B0F85000801D02EB400174
:1020400022693E2A10D92269C2F34F10227C02F085
:102050001F020AB9421E90B24FF6FF7202EA8022B6
:1020600042F400420A600DE02269C2F34F00227C74
:1020700002F001020AB1421C90B24FF6FF7202EA6E
:1020800080220A60296809884BF68F7201EA0200F3
:1020900080F4805080F4005040F4004141F0800111
:1020A0002A68118031E17100286830F81100009031
:1020B000BDF8000000F4004000287CD071002868C2
:1020C00030F81100C0F30E0048F68F71084072001E
:1020D000296821F8120005F5027000EB4614A07A79
:1020E000A8B92868B0F85010207801EBC000801D16
:1020F000296801F5806131F81000C0F30907EFB3DA
:10210000A28861693B46286802F005F944E021781D
:102110004900286830F8110000F48040A8B1286810
:10212000B0F85010207801EBC000801C296801F540
:10213000806131F81000C0F30907DFB1E2886169FE
:102140003B46286802F0E7F814E02868B0F8501021
:10215000207801EBC000801D296801F5806131F80D
:102160001000C0F309072FB1228961693B46286836
:1021700002F0D1F821784900286800E00CE030F83E
:10218000110048F68F71084048F2C00108432278D8
:102190005200296821F81200E0693844E061606962
:1021A00038446061A06910B12069B84204D921782F
:1021B0002846FEF7CDFA05E021782846D4E9052324
:1021C000FEF778FBBDF8000000F0800000287CD00E
:1021D00005F1280000EB46147100286830F8110062
:1021E00048F60F7108407200296821F81200A07AA1
:1021F000D0B92868B0F85010207801EBC000801CDE
:10220000296801F5806131F81000C0F30900E06130
:10221000E069E8B3B4F81CC01FFA8CF3A2886169C6
:10222000286802F096F84EE021784900286830F8D6
:10223000110000F04000D0B12868B0F850102078AC
:1022400001EBC000801C296801F5806131F81000A5
:10225000C0F30900E061E06928B3B4F81CC01FFABC
:102260008CF3E2886169286802F073F81BE0286843
:10227000B0F85010207801EBC000801D296801F5EE
:10228000806131F81000C0F30900E061E06900E00E
:1022900019E040B1B4F81CC01FFA8CF322896169BF
:1022A000286802F056F821784900286830F81100B3
:1022B00048F68F7108404CF28001084322785200A2
:1022C000296821F81200286800E01EE0B0F85010DC
:1022D000207801EBC000801C296801F5806131F88D
:1022E0001000C0F30900E061E169606908446061C1
:1022F000A06920B921782846FEF71CFA05E021786C
:102300002846D4E90523FEF743FB2868B0F84400CB
:10231000019000F4004000287FF4EAADBDE8FC81A4
:102320007047704710B5FEF715F9FFF742FC10BD76
:102330001148006840F001000F49086008464068F5
:102340000E4908400C494860084600680C4908409E
:10235000094908600846006820F4802008600846A3
:10236000406820F4FE0048604FF41F008860C803F6
:102370000449086070470000001002400000FFF8A8
:10238000FFFFF6FE08ED00E010B504462068C068C7
:1023900020F040002168C86094F83900322803D149
:1023A000222084F8390002E0012084F83900204618
:1023B000FFF771FD002010BD70B50446002694F8AB
:1023C0003960222E01D0322E52D1A068B0F5805F44
:1023D00013D1A56A206940B920684068C0F308009D
:1023E0002880A06A801CA06219E020684068C0B202
:1023F0002880A06A401CA06211E0206938B92068DA
:102400004068C1B2A26A501CA062117007E0206847
:10241000406800F07F01A26A501CA0621170E08D3C
:10242000401E80B2E08508BB2068C06820F0200014
:102430002168C86094F83900322803D1122084F84A
:1024400039000EE02068C06820F480702168C86000
:102450002068406920F0010021684861012084F86B
:1024600039002046FFF7C4FC002070BD0020FCE7C7
:102470000220FAE72DE9F0410446002520680069B2
:1024800020F44050E1680843216808612169A06890
:102490000843616940EA01052068C06841F20C61A7
:1024A000884328432168C8602068406920F4407050
:1024B000A1690843216848615F49206888425CD16E
:1024C000FEF79CFE00EBC00101EB00106168890083
:1024D000B0FBF1F6FEF792FE00EBC00101EB00103D
:1024E00061688900B0FBF1F06421B0FBF1F000EB12
:1024F000C00101EB0010A6EB8000322101EB0010BF
:102500006421B0FBF1F000F0F006FEF777FE00EB7F
:10251000C00101EB001061688900B0FBF1F064219B
:10252000B0FBF1F006EB0016FEF768FE00EBC00111
:1025300001EB001061688900B0FBF1F7FEF75EFE69
:1025400000EBC00101EB001061688900B0FBF1F005
:102550006421B0FBF1F000EBC00101EB0010A7EB30
:102560008000322101EB00106421B0FBF1F000F09B
:102570000F003044216888605BE0FEF729FE00EB25
:10258000C00101EB001061688900B0FBF1F6FEF7B5
:102590001FFE00EBC00101EB001061688900B0FB79
:1025A000F1F06421B0FBF1F000EBC00101EB001091
:1025B000A6EB8000322101EB00106421B0FBF1F0AA
:1025C00000F0F006FEF704FE00EBC00101EB001086
:1025D00061688900B0FBF1F06421B0FBF1F006EB1B
:1025E0000016FEF7F5FD00EBC00101EB001061687D
:1025F0008900B0FBF1F7FEF7EBFD00EBC00101EB4A
:10260000001061688900B0FBF1F06421B0FBF1F0CB
:1026100000EBC00101EB0010A7EB8000322101EBC1
:1026200000106421B0FBF1F000F00F00304421688D
:102630008860BDE8F08100000038014010B5014617
:10264000002391F83930122B01D0322B2CD188681D
:10265000B0F5805F0FD10A6A1088C0F308000C68DB
:102660006060086918B9086A801C086209E0086A95
:10267000401C086205E00C6A601C086220780C6847
:102680006060C88C401E80B2C88458B90868C068B1
:1026900020F080000C68E0600868C06840F04000EE
:1026A0000C68E060002010BD0220FCE710B5024875
:1026B000FFF784FA10BD0000901200202DE9F041D0
:1026C00004460D461646D4F8187294F8FC01032807
:1026D0000DD1387C40B90120387433462A46832115
:1026E000204600F072FE04E00120BDE8F0810220E7
:1026F000FBE70020F9E770B504460D46D4F8140254
:102700002946426820469047002070BD70B50446B7
:102710000D4694F8FC01022802D0032811D100E0F4
:1027200000BF688801280BD10020C4F80402D4F847
:1027300014022946826820469047204600F05EF841
:1027400004E02946204600F01BF800BF00BF70BD22
:1027500070B506460C4615462B46224600213046EB
:1027600000F021FD002070BD70B506460C461546F0
:102770002B4622460021304600F027FE002070BD87
:1027800070B504460D468021204600F0D4FD00219E
:10279000204600F0D0FD70BD70B504460E461546CB
:1027A0000320C4F8F4014FF484700551001D055155
:1027B0002B4632460021204600F0F5FC002070BD7B
:1027C00010B504460520C4F8F40100231A46194642
:1027D000204600F0E8FC002010BD70B504460E460F
:1027E00015460220C4F8F401A561E5612B46324686
:1027F0000021204600F0E9FD002070BD10B5044620
:102800000420C4F8F40100231A461946204600F0BB
:10281000DCFD002010BD000070B505460C462DB94A
:102820002246064906A000F087F904E02246034943
:1028300003A000F081F9014870BD000000020020F3
:1028400048494420436F6E666967000002461220C3
:1028500008800148704700002400002070B505463C
:102860000C462DB92246064906A000F065F904E0A1
:102870002246034903A000F05FF9014870BD000043
:102880000002002048494420496E74657266616305
:1028900065000000024604200880014870470000DF
:1028A0003800002070B505460C462246024903A0B8
:1028B00000F042F9004870BD0002002053544D69F9
:1028C00063726F656C656374726F6E696373000029
:1028D00070B505460C462DB92246064906A000F003
:1028E0002BF904E02246034903A000F025F9014832
:1028F00070BD0000000200204F7261794B564D20E0
:102900004D6F757365204B6579626F61726400006D
:1029100070B505460C462DB92246064906A000F0C2
:102920000BF904E02246034903A000F005F9014831
:1029300070BD0000000200203030303030303030C8
:10294000303031410000000070B504460D46E88883
:10295000012804D029462046FFF712FF1BE094F817
:10296000FC01022802D003280FD108E00020A0605B
:10297000012204F108012046FFF72FFF0AE001229F
:10298000211D2046FFF729FF04E029462046FFF7D6
:10299000F7FE00BF00BF70BDF8B504460E46708854
:1029A000001208287FD2DFE800F07E040C207E7E33
:1029B0005F6D207CD4F810120A686946904705467E
:1029C00076E0207C40B9D4F81402816A68468847D2
:1029D00005460221697007E0D4F81402C16A68460E
:1029E000884705460221697062E0B078062834D233
:1029F000DFE800F0030B131B232B207CD4F810120C
:102A00004A686946904705462CE0207CD4F81012AD
:102A10008A6869469047054624E0207CD4F8101265
:102A2000CA686946904705461CE0207CD4F810121D
:102A30000A6969469047054614E0207CD4F81012D4
:102A40004A696946904705460CE0207CD4F810128C
:102A50008A6969469047054604E031462046FFF7FB
:102A60008FFEF8BD00BF23E0207C30B9D4F81402FB
:102A7000416B6846884705461AE031462046FFF715
:102A80007FFEEEE7207C48B9D4F81402016B68465B
:102A900088470546072169700AE004E03146204670
:102AA000FFF76EFEDDE731462046FFF769FED8E707
:102AB00000BFBDF8000088B1F08878B1F088BDF89B
:102AC0000010884202DDBDF8000000E0F0880090B0
:102AD000BDF8002029462046FFF77FFE00BFC0E773
:102AE0000146002002E0421CD0B2491C0A78002AAC
:102AF000F9D1704770B504460D4694F8FC010228E0
:102B000002D0032811D100E000BF0120E060D4F81A
:102B1000040218B1E06840F00200E060022204F113
:102B20000C012046FFF759FE04E029462046FFF736
:102B300027FE00BF00BF70BD2DE9F04104460D46E1
:102B400017460026FCB12046FFF7CAFF022101EB21
:102B5000400038803A783046711CCEB22A540322A5
:102B60003046711CCEB22A540AE014F8012B3046CC
:102B7000711CCEB22A5400223046711CCEB22A54A7
:102B800020780028F1D1BDE8F08102460020D2F87B
:102B900018321874704770B504460D4683212046DC
:102BA00000F096F98221204600F092F9812120461A
:102BB00000F08EF9D4F8180230B1D4F8180200F001
:102BC0003FFE0020C4F81802002070BD01465420CA
:102BD00008800148704700009C00002001460A2040
:102BE00008800148704700001401002070B50446B9
:102BF0000E460025072303228321204600F0A2FA77
:102C0000072303228221204600F09CFA0823032296
:102C10008121204600F096FA142000F013FEC4F83B
:102C20001802D4F8180208B9012503E00020D4F8EE
:102C300018120874284670BD2DE9F04106460C466E
:102C40000027B846D6F81852207800F06000002817
:102C500067D0202864D160780C2859D2DFE800F0D2
:102C6000582213095858585858190F06A078286048
:102C700055E0012229463046FFF7AFFD4FE060885E
:102C8000001268604BE00122291D3046FFF7A5FDC8
:102C900045E0A078A860A7793A465A493046FFF740
:102CA0007BFD3CE0608840F2011188420CD1A08895
:102CB00050B9012053490870072788463A464146D3
:102CC0003046FFF78AFD22E06088B0F5817F0DD1A4
:102CD000A08801280AD102204A49087005278846A1
:102CE0003A4641463046FFF778FD10E06088B0F57F
:102CF000807F0CD1A088022809D1002041490870AA
:102D0000082788463A4641463046FFF766FD06E00A
:102D100021463046FFF734FD0220BDE8F08100BFB8
:102D20006DE06078062804D00A285DD00B2865D1B4
:102D300061E060882221B1EB202F25D1A08848B91D
:102D4000E088462801DD462000E0E0880746DFF8FD
:102D5000B88043E0A088012809D1E088422801DD3D
:102D6000422000E0E0880746DFF8A08036E0A08837
:102D7000022833D1E088412801DD412000E0E088CD
:102D80000746DFF88C8029E060882121B1EB202FF5
:102D900024D1A08848B9E088092801DD092000E095
:102DA000E0880746DFF86C8018E0A088012809D188
:102DB000E088092801DD092000E0E0880746DFF807
:102DC00058800BE0A088022808D1E088092801DD9E
:102DD000092000E0E0880746DFF840803A46414697
:102DE0003046FFF7FAFC09E0012205F10C013046FC
:102DF000FFF7F3FC02E0A078E86000BF00BF00BF6F
:102E000000208AE7ED010020200100206801002059
:102E1000AC010020F0000020FC0000200801002090
:102E200070B504460D4616460CB9022070BDD4F8A4
:102E3000140210B10020C4F814020DB1C4F81052ED
:102E4000012084F8FC012670204600F013F90020D0
:102E5000ECE72DE9F04104460D461646D4F8187209
:102E600094F8FC0103280DD1387C40B90120387456
:102E700033462A468121204600F0A7FA04E00120CB
:102E8000BDE8F0810220FBE70020F9E72DE9F041E1
:102E900004460D46002600272946D4F82002FDF7F7
:102EA0009DFC064636B1012E06D0022E06D0032E1A
:102EB00008D105E0002707E0022705E0012703E02D
:102EC000022701E0022700BF00BF3846BDE8F081BD
:102ED0002DE9F04104460D46002600272946D4F886
:102EE0002002FDF749FC064636B1012E06D0022E1F
:102EF00006D0032E08D105E0002707E0022705E0F1
:102F0000012703E0022701E0022700BF00BF384687
:102F1000BDE8F0812DE9F04104460E461746002E2B
:102F200054D104F11405D4F8F401022843D1D5E9B1
:102F30000201884210D9D5E90201401AA860288907
:102F400082B239462046FFF70FFC00231A46194685
:102F5000204600F028F92EE0E9686868B0FBF1F23D
:102F600001FB1200B8B9E9686868884213D3686841
:102F7000D4F8F81188420ED2002211462046FFF7FD
:102F8000F3FB0020C4F8F80100231A461946204636
:102F900000F009F90FE0D4F81402C06840B194F8C9
:102FA000FC01032804D1D4F81402C16820468847E4
:102FB0002046FFF705FC94F80002012814D12046B2
:102FC00000F06DFA002084F800020DE0D4F814023D
:102FD000406948B194F8FC01032805D1D4F81402E3
:102FE00031464269204690470020BDE8F0812DE936
:102FF000F04105460E4617465EBB05F58274D5F8CE
:10300000F401032833D1D4E90201884210D9D4E96C
:103010000201401AA060D4E90201884201D2A068EE
:1030200000E0E06882B239462846FFF791FB1EE0D7
:10303000D5F81402006940B195F8FC01032804D1C9
:10304000D5F814020169284688472846FFF7D6FBC1
:103050000DE0D5F81402806948B195F8FC01032809
:1030600005D1D5F8140231468269284690470020E0
:10307000BDE8F08110B504461F48C0F81C44C4F8F0
:1030800020021E481C4908600820486002211A4896
:1030900081600321C16000218161C1610162FDF78E
:1030A0005FFD20B14FF48D7115A001F075F904F5A5
:1030B00008742023002211462068FDF715FB6023C9
:1030C000002280212068FDF70FFBA0230022812130
:1030D0002068FDF709FBE023002282212068FDF72C
:1030E00003FB2068A4F508744FF490730022832139
:1030F000FDF7FAFA002010BD00040020005C00403B
:103100002E2E2F5372632F757362645F636F6E662A
:103110002E63000010B50246D2F8203201F0800084
:10312000802807D101F07F0403F1280000EB441050
:10313000807810BD01F07F0403F5027000EB4410AD
:103140008078F6E72DE9F04704460F4615461E46FF
:103150004FF00008C1462B4632463946D4F82002CB
:10316000FDF76DFB8046B8F1000F09D0B8F1010FF3
:1031700009D0B8F1020F09D0B8F1030F0CD108E063
:103180004FF000090BE04FF0020908E04FF0010991
:1031900005E04FF0020902E04FF0020900BF00BF56
:1031A0004846BDE8F0872DE9F04704460D4616462F
:1031B0001F464FF00008C1463B4632462946D4F828
:1031C0002002FDF777FB8046B8F1000F09D0B8F177
:1031D000010F09D0B8F1020F09D0B8F1030F0CD1DB
:1031E00008E04FF000090BE04FF0020908E04FF053
:1031F000010905E04FF0020902E04FF0020900BFAB
:1032000000BF4846BDE8F08710B5044640230022C1
:1032100011462046FFF796FF40214FF48870015178
:103220004023002280212046FFF78CFF40212162AD
:10323000012084F8FC01D4F8180228B12179D4F8CF
:103240001402426820469047002010BD014691F8C4
:10325000FD0181F8FC010020704710B5044694F888
:10326000FC01032808D1D4F81402C06920B1D4F8B5
:103270001402C16920468847002010BD024611741F
:10328000002070472DE9F04104460D460026002736
:103290002946D4F82002FDF736FD064636B1012E48
:1032A00006D0022E06D0032E08D105E0002707E045
:1032B000022705E0012703E0022701E0022700BF03
:1032C00000BF3846BDE8F08170B504460D4629467A
:1032D00004F5027000F0AAF80120C4F8F40140F2ED
:1032E0000E20005BC4F8F80194F8080200F01F00FB
:1032F00020B1012808D0022812D10BE004F5027198
:10330000204600F094F913E004F50271204600F025
:1033100072FA0DE004F50271204600F0C1F907E0F1
:1033200094F8080200F08001204600F004F800BF85
:1033300000BF002070BD2DE9F04104460D46002677
:1033400000272946D4F82002FDF7E9FA064636B1EF
:10335000012E06D0022E06D0032E08D105E000274C
:1033600007E0022705E0012703E0022701E002272A
:1033700000BF00BF3846BDE8F08170B504460025A7
:103380000026D4F82002FDF7E2FC054635B1012DF8
:1033900006D0022D06D0032D08D105E0002607E057
:1033A000022605E0012603E0022601E0022600BF16
:1033B00000BF304670BD014691F8FC0181F8FD0167
:1033C000042081F8FC01002070472DE9F0470446F5
:1033D0000D4616461F464FF00008C1463B46324692
:1033E0002946D4F82002FDF7D3FA8046B8F1000F41
:1033F00009D0B8F1010F09D0B8F1020F09D0B8F126
:10340000030F0CD108E04FF000090BE04FF0020968
:1034100008E04FF0010905E04FF0020902E04FF02B
:10342000020900BF00BF4846BDE8F0870A78027075
:103430004A7842708B78CA7803EB022242800B797B
:103440004A7903EB022282808B79CA7903EB02224C
:10345000C28070472DE9F04104460D461646D4F867
:10346000187294F8FC0103280DD1387C40B9012072
:10347000387433462A4682212046FFF7A6FF04E02F
:103480000120BDE8F0810220FBE70020F9E70246B9
:10349000002011B1C2F8141200E00220704701466A
:1034A0000020704770B504460D46A888F8B9E88832
:1034B000E8B9A87800F07F0694F8FC01032804D14D
:1034C00029462046FFF75CF915E084F8FE61314695
:1034D0002046FFF7D7FE2046FFF790F91EB10220E5
:1034E00084F8FC0107E0012084F8FC0103E0294690
:1034F0002046FFF745F970BD70B504460D4602261B
:10350000D4F8140238B1D4F81402294602682046CF
:10351000904700B90026304670BD000070B50446E3
:103520000D46A8783449087008460078012804DD63
:1035300029462046FFF724F95BE094F8FC010228B5
:1035400002D003284FD11CE02B480078A8B12A48AC
:1035500000786060032084F8FC0127480178204649
:10356000FFF7CAFF022804D129462046FFF708F9D1
:1035700070BD2046FFF742F902E02046FFF73EF912
:1035800036E01D48007870B9022084F8FC011A4822
:1035900000786060184801782046FFF7ACF82046B4
:1035A000FFF72CF91EE0144909786068884216D0AC
:1035B00021792046FFF79FF80F48007860600E4899
:1035C00001782046FFF798FF022804D129462046BB
:1035D000FFF7D6F8CCE72046FFF710F902E02046C7
:1035E000FFF70CF904E029462046FFF7C9F800BFB1
:1035F00000BF00BFBCE70000F501002070B5044625
:103600000D46688801280AD1C4F80402D4F81402CF
:1036100029468268204690472046FFF7EFF870BDA4
:1036200010B504462046FFF7A8FE002010BD70B577
:1036300005460C46002660780A2829D2DFE800F00B
:103640001923281E280A0528140F21462846FFF7AB
:10365000A3F922E021462846FFF724FF1DE021467A
:103660002846FFF75BFF18E021462846FFF76CF974
:1036700013E021462846FFF73DFA0EE02146284692
:10368000FFF7BCFF09E021462846FFF73FF804E0BA
:1036900021462846FFF774F800BF00BF304670BDD2
:1036A0002DE9F04105460E464FF000083479307898
:1036B00000F06000202808D1D5F814023146826855
:1036C000284690470020BDE8F0817078002855D04A
:1036D00001282AD003287AD195F8FC01022802D0CB
:1036E00003281BD107E02CB1802C03D021462846AB
:1036F000FFF721FE17E0708830B92CB1802C03D081
:1037000021462846FFF717FED5F814023146826895
:10371000284690472846FFF771F804E031462846CE
:10372000FFF72EF800BF00BF62E095F8FC01022809
:1037300002D003281BD107E02CB1802C03D02146F6
:103740002846FFF7F8FD17E0708878B904F07F008D
:1037500048B121462846FFF799FBD5F814023146B7
:103760008268284690472846FFF748F804E031462B
:103770002846FFF705F800BF00BF39E095F8FC01C7
:10378000022802D003282BD107E004F07F0018B1F3
:1037900021462846FFF7CFFD27E004F0800080286F
:1037A00006D104F07F0105F1140000EB011005E0E3
:1037B00004F07F0105F5827000EB011007462146F9
:1037C0002846FFF7A7FC18B10120386002E00EE0A0
:1037D00000203860022239462846FEF7FEFF04E04A
:1037E00031462846FEF7CCFF00BF00BF00E000BF17
:1037F00000BF404667E770B504460D46002694F8C2
:10380000FC01032814D1287903280CDCD4F8140215
:103810002946826820469047E88840B93EB920464C
:10382000FEF7ECFF03E029462046FEF7A9FF04E07F
:1038300029462046FEF7A4FF00BF00BF002070BD50
:103840007047000001460148704700002008002032
:1038500010B50246C87830B101282CD0022810D00B
:10386000032836D119E00878400032F8100048F6F5
:103870008F13184040F400700B785B0022F813009F
:1038800028E00878400032F8100048F68F131840FE
:103890000B785B0022F813001CE00878400032F837
:1038A000100048F68F13184040F4C0600B785B009E
:1038B00022F813000EE00878400032F8100048F6B5
:1038C0008F13184040F480600B785B0022F81300DF
:1038D00000E000BF00BF0878400032F8100048F652
:1038E0008F73184048F2800318430B7818435B002D
:1038F00022F81300887A00287DD1487898B3888808
:1039000040104400B2F85030087803EBC00002F5D4
:10391000806343F810400878400032F8100000F04F
:10392000400068B10878400032F8100048F68F7304
:10393000184048F2C00318430B785B0022F81300CC
:103940000B785B0032F8133048F6BF7403EA0400CA
:1039500080F0200040F4004343F080030C786400C2
:1039600022F8143047E1FFE7888840104400B2F89D
:103970005030087803EBC000001D02F5806343F867
:103980001040B2F85040087804EBC000801D1C467F
:1039900004EB40030C693E2C10D90C69C4F34F10A2
:1039A0000C7C04F01F040CB9441EA0B24FF6FF7447
:1039B00004EA802444F400441C600DE00C69C4F364
:1039C0004F000C7C04F001040CB1441CA0B24FF673
:1039D000FF7404EA80241C600878400032F810006C
:1039E00000F4804078B10878400032F8100048F6C2
:1039F0008F73184000E01BE04CF2800318430B78F3
:103A00005B0022F813000B785B0032F813304BF6A2
:103A10008F7403EA040080F4805080F4005040F476
:103A2000004343F080030C78640022F81430E2E095
:103A30000878400032F8100040F4807048F68F7328
:103A4000184048F2800318430B785B0022F81300FB
:103A5000C88840104400B2F85030087803EBC0002A
:103A600002F5806343F81040088940104400B2F822
:103A70005030087803EBC000001D02F5806343F866
:103A800010404878F0BB0878400032F8100000F48D
:103A9000804068B10878400032F8100048F68F7313
:103AA00018404CF2800318430B785B0022F8130097
:103AB0000878400032F8100000F0400068B1087843
:103AC000400032F8100048F68F73184048F2C003E7
:103AD00018430B785B0022F813000878400032F896
:103AE000100048F68F73184048F2C00318430B7853
:103AF0005B0022F813000B785B0032F813304BF6B2
:103B00008F7400E01EE003EA040080F4805080F42B
:103B1000005040F4004343F080030C78640022F826
:103B200014300B785B0032F8133048F6BF7403EAA8
:103B3000040040F4004343F080030C78640022F852
:103B4000143058E00878400032F8100000F480404B
:103B500068B10878400032F8100048F68F731840BA
:103B60004CF2800318430B785B0022F813000878AE
:103B7000400032F8100000F0400068B108784000C2
:103B800032F8100048F68F73184048F2C00318430B
:103B90000B785B0022F813000878400032F8100020
:103BA00048F68F7318404CF2800318430B785B0083
:103BB00022F813000B785B0032F8133048F6BF741C
:103BC00003EA040040F4004343F080030C786400EF
:103BD00022F814300B785B0032F813304BF68F74F8
:103BE00003EA040040F4004343F080030C786400CF
:103BF00022F8143000BF002010BD0146B1F840008B
:103C000040F01000A1F840000020704710B50446B5
:103C1000002010BD0146B1F8400020F01000A1F8CE
:103C200040000020704710B50246887A00284DD128
:103C3000487828B30878400032F8100000F04000BF
:103C400068B10878400032F8100048F68F731840C9
:103C500048F2C00318430B785B0022F813000B787E
:103C60005B0032F8133048F6BF7403EA040040F4F6
:103C7000004343F080030C78640022F81430DAE04B
:103C80000878400032F8100000F4804068B10878ED
:103C9000400032F8100048F68F7318404CF2800351
:103CA00018430B785B0022F813000B785B0032F8A6
:103CB00013304BF68F7403EA040040F4004343F0E2
:103CC00080030C78640022F81430B4E048780028AF
:103CD00058D10878400032F8100000F4804068B1F4
:103CE0000878400032F8100048F68F7318404CF204
:103CF000800318430B785B0022F81300087840001B
:103D000032F8100000F0400068B10878400032F846
:103D1000100048F68F73184048F2C00318430B7820
:103D20005B0022F813000878400032F8100048F6D3
:103D30008F73184048F2C00318430B785B0022F8D9
:103D400013000B785B0032F813304BF68F7403EAE4
:103D5000040040F4004343F080030C78640022F830
:103D600014300B785B0032F8133048F6BF7403EA66
:103D7000040040F4004343F080030C78640022F810
:103D8000143058E00878400032F8100000F4804009
:103D900068B10878400032F8100048F68F73184078
:103DA0004CF2800318430B785B0022F8130008786C
:103DB000400032F8100000F0400068B10878400080
:103DC00032F8100048F68F73184048F2C0031843C9
:103DD0000B785B0022F813000878400032F81000DE
:103DE00048F68F7318404CF2800318430B785B0041
:103DF00022F813000B785B0032F8133048F6BF74DA
:103E000003EA040040F4004343F080030C786400AC
:103E100022F814300B785B0032F813304BF68F74B5
:103E200003EA040040F4004343F080030C7864008C
:103E300022F8143000BF002010BD0146002070475A
:103E400001460020704710B50446012024F8400FB9
:103E500000202080A0802082403C10BD014600222E
:103E60004FF43D42B1F840009043A1F840000020DB
:103E7000704702460020704710B50246487848B3A4
:103E80000878400032F8100000F0400068B108786F
:103E9000400032F8100048F68F73184048F2C00313
:103EA00018430B785B0022F813000B785B0032F8A4
:103EB000133048F6BF7403EA040080F0100080F06D
:103EC000200040F4004343F080030C78640022F8A3
:103ED000143029E00878400032F8100000F48040E7
:103EE00068B10878400032F8100048F68F73184027
:103EF0004CF2800318430B785B0022F813000B7818
:103F00005B0032F813304BF68F7403EA040080F440
:103F1000805080F4005040F4004343F080030C785C
:103F2000640022F8143000BF002010BD10B5024616
:103F30000878A0B90B785B0032F813304BF6BF74E9
:103F400003EA040080F4805080F0100040F4004345
:103F500043F080030C78640022F8143027E048789E
:103F600090B10B785B0032F8133048F6BF7403EA67
:103F7000040080F0100040F4004343F080030C780C
:103F8000640022F8143012E00B785B0032F8133032
:103F90004BF68F7403EA040080F4805040F4004331
:103FA00043F080030C78640022F8143000BF002036
:103FB00010BDF0B506460C460027A56960780128BB
:103FC0007CD12169A069884204D92569A069401B78
:103FD000A06102E0A5690020A061A07A80B9ABB21F
:103FE000A2883046616900F0B4F9B6F85010207824
:103FF00001EBC000801C06F5806141F81050A1E083
:104000002078400036F8100000F04000C0B360781F
:1040100038BBB6F85020207802EBC000801D06F5B2
:10402000806202EB40013E2D0ED9C5F34F1005F022
:104030001F020AB9421E90B24FF6FF7202EA8022B6
:1040400042F400420A600BE0C5F34F0005F00102A4
:104050000AB1421C90B24FF6FF7202EA80220A6057
:104060000CE06078012809D1B6F85010207801EBF7
:10407000C000801C06F5806141F81050278939E0A6
:10408000FFE7607840BBB6F85020207802EBC00014
:10409000801C06F5806202EB40013E2D0FD9C5F36E
:1040A0004F1005F01F020AB9421E90B24FF6FF7280
:1040B00002EA802242F400420A600CE057E0C5F3B5
:1040C0004F0005F001020AB1421C90B24FF6FF7298
:1040D00002EA80220A600CE06078012809D1B6F873
:1040E0005010207801EBC000801C06F5806141F87B
:1040F0001050E788ABB23A463046616900F029F9C2
:10410000607870B92078400036F8100048F68F715A
:10411000084048F2C00108432178490026F8110000
:1041200010E0607801280DD12078400036F81000AA
:1041300048F68F7108404CF280010843217849000D
:1041400026F811002178490036F8111048F6BF72A0
:1041500001EA020080F0100080F0200040F40041ED
:1041600041F080012278520026F81210B8E021694F
:10417000A069884204D92569A069401BA06102E0BA
:10418000A5690020A061A07A38BBB6F8502020783D
:1041900002EBC000801D06F5806202EB40013E2D5F
:1041A0000ED9C5F34F1005F01F020AB9421E90B296
:1041B0004FF6FF7202EA802242F400420A600BE0EE
:1041C000C5F34F0005F001020AB1421C90B24FF650
:1041D000FF7202EA80220A606DE0607838BBB6F8B0
:1041E0005020207802EBC000801C06F5806202EBB4
:1041F00040013E2D0ED9C5F34F1005F01F020AB93C
:10420000421E90B24FF6FF7202EA802242F4004250
:104210000A600BE0C5F34F0005F001020AB1421C31
:1042200090B24FF6FF7202EA80220A600CE06078DA
:10423000012809D1B6F85010207801EBC000801C8D
:1042400006F5806141F81050607838BBB6F8502010
:10425000207802EBC000801D06F5806202EB400171
:104260003E2D0ED9C5F34F1005F01F020AB9421EAC
:1042700090B24FF6FF7202EA802242F400420A60D6
:104280000BE0C5F34F0005F001020AB1421C90B2E9
:104290004FF6FF7202EA80220A600CE06078012883
:1042A00009D1B6F85010207801EBC000801C06F54B
:1042B000806141F810502178490036F811104BF612
:1042C0008F7201EA020080F4805080F4005040F4C4
:1042D000004141F080012278520026F8121000BF00
:1042E0000020F0BD014600224FF43D42B1F84000ED
:1042F0001043A1F8400000207047000010B50248AC
:10430000FCF77CFB10BD00000004002001460020EB
:10431000B1F844007047F0B55F1C7E100024002502
:1043200000EB420707F58065344605E035F804CB1D
:1043300021F801CB491C641E002CF7D1F0BD0246C8
:1043400000207047024611B98020A2F84C000020DE
:1043500070472DE9F041044603F101084FEA680770
:104360000025AC460026002004EB420808F58060DA
:104370003D460BE091F800C0491C91F800804CEAE2
:10438000082620F8026B801C491C6D1E002DF1D1FF
:10439000BDE8F08100BFFEE700BFFEE702E008C80D
:1043A000121F08C1002AFAD170477047002001E0AF
:1043B00001C1121F002AFBD17047000070B50546ED
:1043C0001C2000F07BF904460CB9002070BD284683
:1043D00000F074F9A060A06808B90020F6E7E56075
:1043E000A0682060A06860600348606103482061A5
:1043F0000348A0612046E9E7234400085944000827
:10440000054400080146D1E90002904203D3D1E9F6
:104410000002801A7047D1E90020801ACA68101A79
:10442000F8E70246D2E90003984202D14FF0FF308C
:104430007047506800780870D2E902031844401EA3
:1044400053685B1C984202D29068506002E050684A
:10445000401C50600020EBE770B504460D46204636
:10446000FFF7D0FFE168884202D14FF0FF3070BD06
:1044700020680570D4E902010844401E2168491CE7
:10448000884202D2A068206002E02068401C2060C0
:104490000020ECE701701368C0F802309388C380F5
:1044A0007047F0B505AC70CC012707704778002B3A
:1044B00002DD4FF0010C01E04FF0000C47EA0C0761
:1044C00047704778002C02DD4FF0010C01E04FF0FF
:1044D000000C47EA4C0747704778002D02DD4FF08B
:1044E000010C01E04FF0000C47EA8C074770867022
:1044F000C1700F0A07714271170A8771F0BD07E09A
:104500004FF4FA5100BF0A1EA1F1010399B2FAD18A
:10451000021EA0F1010398B2F2D1704707E04FF4F8
:10452000FA5100BF0A1EA1F1010399B2FAD1021E8D
:10453000A0F1010398B2F2D1704700000148006871
:10454000704700006000002000B589B000BF31480E
:10455000806940F020002F4988610846806900F09A
:104560002000009000BF00BF00BF0846806940F0F7
:10457000040088610846806900F00400009000BFD4
:1045800000BF00BF0846806940F008008861084607
:10459000806900F00800009000BF00BF00BF08461F
:1045A000806940F0010088610846806900F00100E0
:1045B000009000BF00BF1848406820F0E06040F065
:1045C0000070154948604FF40040059001200690A6
:1045D000089005A91148FBF723FE4FF47F60019076
:1045E000002002900220039001A90D48FBF718FE5D
:1045F00000224FF400410948FBF7A0FF4FF47A7006
:10460000FFF77DFF0122D1030448FBF797FF09B0B4
:1046100000BD000000100240000001400008014001
:10462000000C0140ADF5247DFBF79CFF00F03EFC43
:1046300000F0FEFCFFF788FF4FF4E13000F0D2FC01
:104640001C494868804734E0FFF778FF06461A485F
:10465000A2ABA1AAA3A905683046A847041E27DB80
:10466000802181A8FBF777FD0025124881AB224607
:1046700006689DF88C02A299B047051E17DD4FF41D
:10468000007101A8FBF767FD002601A800900A4809
:10469000BDF884322A4681A947689DF88C02B84744
:1046A000061E03DD314601A800F0B2FC00BF00BFCA
:1046B00000BFC9E7440000204C000020F0B50B30DB
:1046C000154D20F007010024144A0FE003688B42C7
:1046D0000BD38B4205D95E1A43184768C3E90067BC
:1046E00000E04368136002C004E0021D1068002867
:1046F000ECD12046002802D1286808B10020F0BD86
:10470000064A07481060074A121A22F00702C0E959
:10471000002401202860D7E7FC010020F8010020D8
:10472000D4120020D03200202DE9F04104460D467D
:1047300016461F46044850F824303A46314628466B
:104740009847BDE8F08100005C0A00200548064952
:10475000086006484860064888600648C860064801
:10476000086170477D4700085C0A0020E5480008A2
:104770008548000865480008B54800080346002041
:104780001070012070472DE9F04186B006460C46B6
:1047900015461F46DDF830802CB925B14FF0FF30AB
:1047A00006B0BDE8F081AA208DF80400BB208DF88A
:1047B00014008DF80C60ADF80870A81D80B2ADF83B
:1047C00006000020ADF80A0000BF08E0BDF80A307E
:1047D0000146401C615C194489B2ADF80A10A84238
:1047E000F4D30494BDF80A009DF80C10084480B27C
:1047F000ADF80A00BDF80A009DF81410084480B214
:10480000ADF80A00414601A800F064FAC8E72DE9B6
:10481000FC4104460D4616461F460020009007E066
:1048200069469DF8040000F07BF8009800B105E0AF
:1048300001A92046626990470028F1D000BF009886
:1048400068B10098007A28700098C06838600098B5
:104850008088308000984088801FBDE8FC814FF040
:10486000FF30FAE7F8B504460F461546264630787D
:10487000711C00F057F9C0B200909DF8000028703C
:104880000120F8BDFEB504460F4616462546E879D8
:10489000A979CDE900106B792A79B5F90210B5F93B
:1048A000000000F071F9C0B202909DF8080030706D
:1048B0000120FEBDFEB504460F4616462546E879A2
:1048C000A979CDE900106B792A79B5F90210B5F90B
:1048D000000000F097F9C0B202909DF80800307017
:1048E0000120FEBD70B58AB005460E4614461E2254
:1048F000094801680DF10A00FBF738FC0A22074855
:1049000001686846FBF732FC282269462046FBF71F
:1049100009FC28200AB070BD400000203C000020A7
:1049200070B504460D460026AA2C03D10020774915
:10493000087008E0CC2C06D10020286001207449C2
:104940000870002070BD7248007880B10020704966
:104950000870012C02D0022C04D101E0CC2405E027
:10496000AA2403E0002069490870EBE700BF67480C
:104970000078072875D2DFE800F0041E344A637C13
:104980009800AA2C16D114216248FBF7E4FB4FF4DF
:1049900000616148FBF7DFFB5E4804705E485D49DB
:1049A000C86001205949087000205C490880012036
:1049B0005B490870A1E05A48007828B15548448006
:1049C0000020574908700BE05248408840EA042014
:1049D0005049488001205249087002204B49087014
:1049E0008BE04F48007828B14A48848000204C4929
:1049F00008700BE04748808840EA042045498880D9
:104A000001204749087003204049087075E0444878
:104A1000007828B13F48C4800020414908700EE06A
:104A20003C48C08840EA04203A49C88001203C49FB
:104A300008700420354908700020384908805CE07F
:104A4000344804724088062803DA00202F49087091
:104A50000EE030484088062804DD05202B49087008
:104A600006E047E02B484088062801D12749087016
:104A700043E02A4801880088401C284A10802648C4
:104A8000445410460088B0F5006F03D900201F4938
:104A9000087009E01F484088801F20490988884223
:104AA00002D106201949087027E0BB2C1ED1002036
:104AB000BB22184B1A74002105E00A46491C164B0C
:104AC0009A5C024490B2134A5288921F8A42F4DCE4
:104AD000104A127A024490B20E4A127C024490B2FA
:104AE0000C4AD288824200D1012600BF002007492B
:104AF000087002E04FF0FF3024E700BF16B1054810
:104B0000286001E00020286000201BE754000020FE
:104B1000580000207C0A0020900A00205600002047
:104B2000590000202DE9FC4104460D46002000906C
:104B300001902A4621466846FFF7ACFC0126114841
:104B4000D0F80402012806D10E4890F8FC01042890
:104B500001D100F081FA00270BE0082269460948DC
:104B6000FEF777F908B9002605E00A20FFF7D6FC22
:104B70007F1C032FF1DB00BF0EB100F06DFA304651
:104B8000BDE8FC81380800202DE9F04F85B00546CE
:104B90000E4617469846DDE90EAB002003900490C0
:104BA0003B463246294603A88DE8000DFFF779FC05
:104BB0001348D0F80402012806D1114890F8FC01EE
:104BC000042801D100F048FA01244FF000090CE05C
:104BD000072203A90A48FDF771FD08B9002407E080
:104BE0000A20FFF79BFC09F10109B9F1030FEFDB84
:104BF00000BF0CB100F030FA204605B0BDE8F08FE0
:104C0000380800202DE9FC5F04460D4617469846FB
:104C1000DDE90CAB00200090019002208DF800002F
:104C20009DF80100002F01DD012100E00021084373
:104C30008DF801009DF80100B8F1000F01DD0121A0
:104C400000E0002140EA41008DF801009DF80100DC
:104C5000BAF1000F01DD012100E0002140EA8100EE
:104C60008DF801008DF802B0E0B28DF80300200A43
:104C70008DF80400E8B28DF80500280A8DF80600CA
:104C80001348D0F80402012806D1114890F8FC011D
:104C9000042801D100F0E0F901264FF000090CE0F2
:104CA000072269460A48FEF7D5FB08B9002607E047
:104CB0000A20FFF733FC09F10109B9F1030FEFDB1B
:104CC00000BF0EB100F0C8F93046BDE8FC9F0000FF
:104CD0003808002030B503460A46002118781070C5
:104CE000012100BF00BF9878AA2807D0CC280CD19A
:104CF0005054012054186070891C0AE0CC20505494
:104D0000022054186070891C03E098785054491CA4
:104D100000BF00BF00BF00BF58880012AA2807D0FC
:104D2000CC280CD15054012054186070891C0BE021
:104D3000CC205054022054186070891C04E058881C
:104D400000125054491C00BF00BF00BF00BF00BF8D
:104D500000BF1879AA2807D0CC280CD150540120C4
:104D600054186070891C0AE0CC205054022054185A
:104D70006070891C03E018795054491C00BF00BFC3
:104D800000BF00BF98880012AA2807D0CC280CD1F9
:104D90005054012054186070891C0BE0CC205054F2
:104DA000022054186070891C04E098880012505446
:104DB000491C00BF00BF00BF00BF00BF00BF987903
:104DC000AA2807D0CC280CD1505401205418607068
:104DD000891C0AE0CC205054022054186070891CB1
:104DE00003E098795054491C00BF00BF00BF00BFCA
:104DF000D8880012AA2807D0CC280CD15054012002
:104E000054186070891C0BE0CC20505402205418B8
:104E10006070891C04E0D88800125054491C00BFFF
:104E200000BF00BF00BF00BF187AAA2807D0CC2857
:104E30000CD15054012054186070891C0AE0CC2019
:104E40005054022054186070891C03E0187A5054A2
:104E5000491C00BF00BF00BF5888002821DD00208A
:104E60001BE000BFDC68245CAA2C07D0CC2C0CD142
:104E70005454012455186C70891C0BE0CC245454F4
:104E8000022455186C70891C04E0DC68245C5454BE
:104E9000491C00BF00BF00BF401C5C88A41F8442A7
:104EA000DFD8187C5054481C30BD000010B594B0B9
:104EB00001200A9000040B9000200C9001200E901D
:104EC00002201190C10312914FF4E01113910AA82E
:104ED000FCF704FA18B120211AA0FFF75DFA0F20A1
:104EE000059002200690002007904FF48060089003
:104EF00000200990022105A8FCF718F818B12C2110
:104F000010A0FFF749FA102001900020049001A89A
:104F1000FBF74EFF18B133210AA0FFF73DFAFCF76B
:104F200051F94FF47A71B0FBF1F42046FCF727FEFB
:104F30000420FCF70FFE00221146501EFBF781FBF8
:104F400014B010BD2E2E5C5372635C6D63755F6987
:104F50006E69742E6300000010B5044611481249B2
:104F600008600846446000218160C16001610C2135
:104F7000416100218161C161FCF78DFE18B11D21E5
:104F80000AA0FFF709FA002201212520FBF759FBAF
:104F90002520FBF749FB012211490348FCF7E4FEF9
:104FA000002010BD00380140901200202E2E5C2EF3
:104FB0002E5C2E2E5C2E2E5C65787465726E616C94
:104FC0005C6D63755F7075626C69635C7372635C62
:104FD000756172745F68616E646C652E63000000B9
:104FE0005C00002010B504464FF44060FFF7E6F97E
:104FF000064908600846006810B94FF0FF3010BD40
:105000002046FFF7A9FF0020F9E70000600000201C
:1050100070B504460D4614B94FF0FF3070BDAAB20A
:1050200021460248FCF700FFF8E70000901200203C
:1050300010B5002205490648FDF7F2FE054904486F
:10504000FEF725FA0248FEF7EBFA10BD0800002033
:10505000380800206400002010B50949D1F820026A
:10506000FBF762FB0A20FFF759FA0549D1F8200245
:10507000FBF77CFB00200249C1F8040210BD0000D0
:1050800038080020000000000000000001020304B6
:10509000060708090000000001020304312E342E27
:1050A0003200000073746D3332663130336338740C
:1050B00036000000D450000800000020000200006C
:1050C000A80100081052000800020020D03400009F
:1050D000AC4300085116A24A044D281B0895041A37
:1050E000A5041AD1041311291B0819081A5D041309
:1050F00012013202164083042B57260201020301DB
:1051000017040309049C501B08A4041329471B0817
:105110004D04130F481B0887085119248113ED2BE8
:105120001B0897045B392C1C311A8B1001101ACD07
:105130001469041ADD0414090254196C12A01B0925
:10514000045014030102150921110114012246160D
:1051500007058303071C0A09040F99191A42194A03
:1051600082192A02196A01191A41191C81030819A6
:10517000694231290C2A2035890C42414B0A06F03C
:1051800029C3100C05010902A10185010901A11023
:105190000805091901290315180C25019503750146
:1051A00081029501755519221011381581257F75D9
:1051B000089501810609300931151526FF7F3578DC
:1051C0000C46FF7F751095028102C0C0480A2A0272
:1051D000481C1601804939445A0644380A06A10180
:1051E000050719E029E73E5A083E1808088103958B
:1051F000067508141AFF1E112C2965811E1E0575DF
:105200000105086A2B0591241C0391034301110039
:04000005080000ED02
:00000001FF
